:10000000E07F0010CD000000F1080000F3080000C0
:10001000F5080000F7080000F908000000000000E3
:10002000000000000000000000000000FB080000CD
:10003000FD08000000000000FF08000001090000AA
:100040000309000003090000030900000309000080
:100050000309000051060000030900000309000025
:100060000309000003090000030900000309000060
:100070000309000003090000030900000309000050
:100080000309000003090000030900000309000040
:100090000309000003090000030900000309000030
:1000A0000309000003090000030900000309000020
:1000B0000309000003090000030900000309000010
:1000C0000309000003090000030900000D490E4A5E
:1000D0000E4B9A423EBF51F8040B42F8040BF8E76E
:1000E00000200B490B4A91423CBF41F8040BFAE750
:1000F0000948804709488047094880470948004720
:10010000FEE70000B80D00000000001030040010F1
:1001100030040010700800103109000005090000CB
:10012000EF0800006907000010B5054C237833B9CB
:10013000044B13B10448AFF300800123237010BDBA
:100140003004001000000000640D000008B5064BEC
:100150001BB106480649AFF300800648036813B197
:10016000054B03B1984708BD00000000640D000076
:1001700034040010000000100000000037B5324BBE
:1001800004460122002002291A708DF804008DF81F
:1001900003002E4B04D1032C3BD118602C480DE0FA
:1001A00029B9012C35D103221A602A4A20E00A29F4
:1001B00009D10B2C2DD1022018602748274B8DF830
:1001C0000220186029E00F2904D1102C21D11A60D7
:1001D0002348F3E7192905D11A2C1AD103221A60F2
:1001E0001C48EBE7402909D1412C12D11A601C4A66
:1001F0001A4B1A6002238DF802300EE0482904D110
:10020000492C06D102221A60D7E79C2901D19D2CE6
:10021000E3E74FF0FF321A6014E0C1F3421368467F
:1002200001F01F010F4D8DF800308DF80110A84727
:10023000C4F34213684604F01F048DF800308DF8B3
:100240000140A84703B030BD6808001058060010F0
:1002500000C0004000C00940008009406408001050
:1002600000000140190B0000904B2DE9F04F0024D5
:100270001C708F4B8F4F5A685C601A681C608E4BE5
:100280008BB05A685C601A681C608C4BB8428CBF9B
:10029000012703271B684FEA001B08930794A44615
:1002A000029422460899CDF80CB021FA07F34FEAE0
:1002B00043095B01CDF810900993CDF80490012615
:1002C000DDF80C800025DDF80490B9FBF8F301336C
:1002D0005B08B3F5803F41D2002B08BF012315B165
:1002E000012B08BF022329035943DDF824A0B1FBE9
:1002F000F6F101EB0339BAFBF9F94FEAC901814282
:100300002DBFC0EB0109C1EB000ACDF814A0CDF858
:10031000149082422BBFC0EB0209C2EB000ACDF859
:100320001890CDF818A0DDF81490DDF818A0D1458C
:1003300014D2FAB21FFA83FC8142F3B202920793FD
:10034000ECB22BD02CBFC0EB0103C1EB00034FF488
:10035000C0625343B3FBF0F303B30A460135B54221
:10036000D844B0D3DDF80C90DDF804A00499013630
:10037000D9448A44102ECDF80C90CDF804A09FD11A
:1003800082422CBFC0EB0203C2EB0003C8214B43E7
:10039000B3FBF0F313B1013F032F83D9029A022A72
:1003A00096BF474B03239B5C464A1268032A47D8F3
:1003B000DFE802F002132435434AD2F8C41041F0BA
:1003C0000801C2F8C410D2F8A81121F0C00141EA16
:1003D0008313C2F8A831052233E03B4AD2F8C41097
:1003E00041F01001C2F8C410D2F8A81121F44071F4
:1003F00041EA0323C2F8A831062222E0324AD2F8A9
:10040000C41041F08071C2F8C410D2F8AC1121F4CC
:10041000403141EA0343C2F8AC31072211E02A4AD5
:10042000D2F8C41041F00071C2F8C410D2F8AC1177
:1004300021F4402141EA8343C2F8AC31082200E0B4
:10044000FF22224BDDF81CA01B6804F00F04197B6F
:1004500044EA0A1441F0800119734FEA1C215FFA43
:100460008CFC197183F800C0197BE4B201F07F01A4
:100470001973072183F82840197203211973002189
:1004800083F8241093F8301041F0800183F8301085
:1004900051B2012302F01F0203FA02F20C4B490988
:1004A00043F821200BB0BDE8F08F00BF54060010C8
:1004B0005C0600103F420F004C04001004000010C6
:1004C000340D00005806001000C00F4064080010F2
:1004D00000E100E010B5034B144698472046024B5C
:1004E000984710BD7D01000069020000094B1B68A0
:1004F000032B0ED8DFE803F002040608202205E0F3
:10050000402203E0802201E04FF48072024BC3F8E6
:10051000802070475806001000E100E0064B1B6881
:100520001B7D5B0606D4054B18685B68C01AC0F3D8
:100530000800704700207047640800105C06001037
:10054000F8B51A4D012128680022194EB0472868D5
:10055000184B98470128FAD0144B1868164B1A68A4
:1005600059684A40C2F308026AB15A685C68511C73
:1005700059601A44127AD2B202705A685968C2F3AA
:1005800008025A60EAE71A685C680C4F5440C4F3EA
:1005900008042CB9286801212246B0473C70F8BDF8
:1005A000012128680A463970B047F8BD6408001078
:1005B000C10B00001F0C00005C0600105406001068
:1005C00030B50E4B19680B7DDB0716D50C4B087840
:1005D0005C681A68C0B201326240C2F30802002AA5
:1005E000F1D01A681D68541C1A441C6010721A68F5
:1005F0001868C2F308021A60E5E730BD640800100D
:100600004C04001038B50D4C0D4B2068984700F095
:100610000E05062D06D120680A4B984710F09E0F54
:100620000AD0FEE700F00600042801D1064B9847E7
:10063000022D01D1054B984738BD00BF640800105A
:10064000130C00000D0C0000C10500004105000066
:1006500008B5014B984708BD0506000007B5002303
:100660008DF802308DF804308DF80330C0F342135A
:1006700000F01F008DF800308DF80100024B684635
:10068000984703B05DF804FB190B000008B5014B57
:10069000984708BD5D06000008B50A4600F01F0334
:1006A00001219940C0F34210014B984708BD00BF9B
:1006B000750A000008B50121014B984708BD00BF2D
:1006C0009906000008B5012100F01F039940C0F30E
:1006D0004210014B984708BD810A000008B501216E
:1006E00000F01F039940C0F34210014B984708BD2A
:1006F0008D0A000038B504460D46044B9847204645
:100700000DB1034B00E0034B984738BDB506000020
:10071000C5060000DD06000082B000230093009BA8
:10072000834204D2009B0193009B0133F6E70198BA
:1007300002B0704738B5C5B20A4C05F0010132204D
:10074000A04705F002013320A04705F00401342042
:10075000A04705F008013520A0479C2005F01001B6
:10076000A04738BDF506000073B5524B9847524D6F
:100770003220524CA8473220A0473320A8473320CC
:10078000A0473420A8473420A0473520A84735206B
:10079000A0479C20A8479C20A0474420A84744206D
:1007A000A047474E00214420B0474520A847452098
:1007B000A04700214520B0474620A8474620A04733
:1007C00000214620B0474720A8474720A0470021E6
:1007D0004720B0471F203B4B98473B4C032002214A
:1007E0003A4AA04726463A4CA0470028FBD1A047EA
:1007F0000028FCD1374B9847374D3848A847384B2D
:100800004FF480429A60374B0122C3F88020AA221D
:10081000C3F88C205522C3F88C20D3F88810314AB5
:1008200011F00071F9D1AA23C2F88010C2F88C30FF
:100830005523C2F88C302B4BD3F8882012F08072ED
:10084000F9D119684FF47A70C1F30B011960196876
:1008500041F4A0411960C3F80421C3F80C21C3F886
:10086000A021A847BFF35F8FBFF34F8FBFF36F8FF8
:100870004FF48043D3F800D0D3F804F003200221D2
:10088000124AB047A0470028FCD14FF480230193BF
:10089000019B13B1019B013BF9E7BFF34F8F104A56
:1008A000114BD16801F4E0610B43D360BFF34F8F6C
:1008B000FEE700BF2B0C00008D060000B50600000F
:1008C000F506000035070000D504000080841E00F6
:1008D0001D050000ED04000019070000C0C62D0032
:1008E00000ED00E000C00F400400FA0570477047BB
:1008F000FEE7FEE7FEE7FEE7FEE7FEE7FEE7FEE7D0
:10090000FEE7FEE708B5064B9847064B98470648B2
:10091000064B984708BDFEE7FEE7FEE7FEE7FEE769
:10092000990A0000CD0A0000000000000D0B000035
:10093000374B2022C3F8A021D3F8A021920603D57B
:10094000D3F8A0215006FBD50322C3F804210022CE
:10095000C3F8A8210120C3F8AC211322C3F80C016D
:10096000AA21C3F884205522C3F88C10C3F88C2028
:10097000C3F88000C3F88C10C3F88C20244AD2F846
:1009800088305901FAD50323C2F88030AA23C2F86F
:100990008C305523C2F88C30D2F888101C4B11F0E3
:1009A000407FF9D02322C3F8A420AA215522012098
:1009B000C3F8AC10C3F8AC20C3F8A000C3F8AC1067
:1009C000C3F8AC20124BD3F8A8205205FAD5032265
:1009D000C3F8A020AA22C3F8AC205522C3F8AC204B
:1009E000D3F8A8100A4A11F4407FF9D0094BC2F895
:1009F000C4300023C2F8C83145F23A031360064BF5
:100A0000064A1B6823F0404323F07F03936070473E
:100A100000C00F40088420800000000000ED00E0CE
:100A200004280CD8064B53F8203043B112B11A6891
:100A3000114302E01A6822EA01011A68196070473E
:100A4000380D0000042805D8034B53F820300BB1B3
:100A50009A699961704700BF380D0000042805D8D5
:100A6000034B53F820300BB1DA69D961704700BFEE
:100A7000380D000008B5014B984708BD210A000059
:100A800008B5014B984708BD450A000008B5014B61
:100A9000984708BD5D0A00000B4B4FF0FF31012263
:100AA000C3F88010C3F88420C3F88011C3F88421F0
:100AB000002303F16042013302F561420021202B43
:100AC00082F80013F5D1704700E100E00D4B4FF0C4
:100AD00020620D495A6000229A60D9601A615A61F9
:100AE00002F16041013201F56D410020202A054BE1
:100AF0000876F5D14FF0FF3258629A62DA621A63D3
:100B0000704700BF00ED00E00000FA05014B98605F
:100B1000704700BF00ED00E070B5427884780F2A7E
:100B200088BF103A4FEA42024FF0030505FA02F57A
:100B300004FA02F203784FF003064FEA430388BF3A
:100B400001339B0003F1804303F53033196821EA38
:100B500005010A431A604278C5780F2A88BF103A07
:100B60004FEA420206FA02F605FA02F20378124947
:100B70004FEA430388BF013351F8234024EA0604B7
:100B8000224341F823200278417800790B4B012859
:100B900007D100FA01F153F822400C4343F82240F8
:100BA00070BD012000FA01F153F8220020EA010093
:100BB00043F8220070BD00BF40C0024068C0024040
:100BC000062996BF0F4B002333F81130012A0E4A35
:100BD00005D19042426843EA02030FD10FE09042F0
:100BE0006FEA030305D1426840F28F3111400B4098
:100BF00005E0416840F207320A4013404268436012
:100C0000704700BF4C0D000000000140007DC0B2E5
:100C10007047806820F030008005800D7047007DAF
:100C200080F04000C0F38010704772B64FF08043F0
:100C3000AA221A7255221A7262B67047024B13B179
:100C4000024800F005B87047000000005D0C00008D
:100C5000014600200246034600F018B838B5094D99
:100C6000094C641BA41018BF05EB840505D0013C9A
:100C700055F8043D9847002CF9D1BDE8384000F004
:100C80007BB800BF840D0000880D0000F0B5274C34
:100C900085B026680746D6F84841002C40D06568E4
:100CA0001F2D1EDD224818B94FF0FF3005B0F0BDF2
:100CB0004FF4C870039102920193AFF3008003993F
:100CC0000446029A019B0028EED0D6F84851002035
:100CD000256060600546C6F84841C4F88801C4F83C
:100CE0008C013FB96B1C00200235636044F825106D
:100CF00005B0F0BD0126AE4004EB8500C0F88820A9
:100D0000D4F88821022F42EA0602C4F88821C0F8EC
:100D10000831E7D1D4F88C311E43C4F88C61E1E787
:100D200006F5A674C6F84841B9E700BF600D00009B
:100D3000000000000102000000C0092020C00920BE
:100D400040C0092060C0092080C0092001000200C5
:100D500004000800800000010002000043000000C1
:100D600008000010F8B500BFF8BC08BC9E467047EC
:100D70003D0C00004D010000F8B500BFF8BC08BCF8
:100D80009E4670472901000000000000B80D0000D9
:0C0D9000000000103004000040040000CF
:100D9C0030F3FF7F0100000060FBFF7FB0B0B0803C
:080DAC0084FBFF7F0100000041
:100DB80000000000000E270700000000F4020010E9
:100DC8005C030010C40300100000000000000000D5
:100DD800000000000000000000000000000000000B
:100DE8000000000000000000000000005C0D000092
:100DF80000000000000000000000000000000000EB
:100E080000000000000000000000000000000000DA
:100E180000000000000000000000000000000000CA
:100E280000000000000000000000000000000000BA
:100E380000000000000000000000000000000000AA
:100E4800000000000000000000000000000000009A
:100E5800000000000000000000000000000000008A
:100E680001000000000000000E33CDAB34126DE627
:100E7800ECDE05000B000000000000000000000090
:100E8800000000000000000000000000000000005A
:100E9800000000000000000000000000000000004A
:100EA800000000000000000000000000000000003A
:100EB800000000000000000000000000000000002A
:04000003000000CD2C
:00000001FF
